:100000000C945D000C9485000C9485000C94850084
:100010000C9485000C9485000C9485000C9485004C
:100020000C9485000C9485000C9485000C9485003C
:100030000C9485000C9485000C9485000C9485002C
:100040000C9451040C9485000C94E5030C94BF03AC
:100050000C9485000C9485000C9485000C9485000C
:100060000C949B040C948500000000080002010021
:100070000003040700000000000000000000000072
:10008000250028002B0000000000240027002A0083
:10009000040404040404040402020202020203032E
:1000A0000303030301020408102040800102040836
:1000B0001020010204081020FD0911241FBECFEFFB
:1000C000D8E0DEBFCDBF11E0A0E0B1E0ECE9F5E1A2
:1000D00002C005900D92AA3CB107D9F723E0AAEC23
:1000E000B1E001C01D92AF33B207E1F710E0CDE5FA
:1000F000D0E004C02197FE010E94C10ACC35D1078F
:10010000C9F70E941C080C94CC0A0C940000CF92F2
:10011000DF92EF92FF920F931F93CF93DF936C01C7
:100120007A018B01C0E0D0E0CE15DF0589F0D8015F
:100130006D918D01D601ED91FC910190F081E02D42
:10014000C6010995892B11F47E0102C02196ECCFDE
:10015000C701DF91CF911F910F91FF90EF90DF903A
:10016000CF900895FC01538D448D252F30E0842FCE
:1001700090E0821B930B541710F0CF9608950197CF
:100180000895FC01918D828D981761F0828DDF01B9
:10019000A80FB11D5D968C91928D9F5F9F73928F7A
:1001A00090E008958FEF9FEF0895FC01918D828D6F
:1001B000981731F0828DE80FF11D858D90E008953C
:1001C0008FEF9FEF0895FC01918D228D892F90E094
:1001D000805C9F4F821B91098F739927089589E84E
:1001E00092E00E94E30021E0892B09F420E0822FB5
:1001F0000895FC01848DDF01A80FB11DA35ABF4FE4
:100200002C91848D90E001968F739927848FA68915
:10021000B7892C93A089B1898C9180648C93938D3C
:10022000848D981306C00288F389E02D80818F7D2C
:1002300080830895EF92FF920F931F93CF93DF93E4
:10024000EC0181E0888F9B8D8C8D981305C0E88927
:10025000F989808185FD24C0F62E0B8D10E00F5F9B
:100260001F4F0F731127E02E8C8DE8120CC00FB6B4
:1002700007FCFACFE889F989808185FFF5CFCE01A7
:100280000E94F900F1CF8B8DFE01E80FF11DE35ABA
:10029000FF4FF0820B8FEA89FB898081806207C063
:1002A000EE89FF896083E889F98980818064808391
:1002B00081E090E0DF91CF911F910F91FF90EF903F
:1002C0000895CF93DF93EC01888D8823C9F0EA89E4
:1002D000FB89808185FD05C0A889B9898C9186FD3F
:1002E0000FC00FB607FCF5CF808185FFF2CFA8893C
:1002F000B9898C9185FFEDCFCE010E94F900E7CF3F
:10030000DF91CF91089580E090E0892B29F00E9441
:10031000EF0081110C940000089590E0FC01E85971
:10032000FF4F3491FC01EC55FF4F2491FC01E05745
:10033000FF4FE491EE2309F43BC0332339F133300E
:1003400091F038F43130A9F0323001F584B58F7D69
:1003500012C0373091F03830A1F03430B9F48091C8
:1003600080008F7D03C0809180008F778093800014
:100370000DC084B58F7784BD09C08091B0008F77A0
:1003800003C08091B0008F7D8093B000F0E0EE0F4D
:10039000FF1FE458FF4FA591B4918FB7F894EC91EB
:1003A000611103C020952E2301C02E2B2C938FBFEB
:1003B00008953FB7F8948091320290913302A09152
:1003C0003402B091350226B5A89B05C02F3F19F025
:1003D0000196A11DB11D3FBFBA2FA92F982F8827C5
:1003E000820F911DA11DB11DBC01CD0142E0660F20
:1003F000771F881F991F4A95D1F7089585ED80933F
:10040000BC008091BC0084FDFCCF10926202089574
:1004100040910C02262F30E0240F311D213231058E
:10042000DCF4209162022430C9F4FC0180E090E009
:10043000861758F430910C022191DC01A651BE4F71
:10044000A30FB11D2C930196F3CF80910C02680F7E
:1004500060930C0280E0089581E0089582E00895A1
:100460001092620281E08093610210925C0261E06E
:1004700082E10E948D0161E083E10E948D01E9EB40
:10048000F0E080818E7F808380818D7F808388E40F
:100490008093B80085E48093BC0008950895E091AE
:1004A000640280916302E81730F4F0E0EB59FD4FED
:1004B000808190E008958FEF9FEF089590916402FE
:1004C00080916302981750F4E92FF0E0EB59FD4F4B
:1004D000208130E09F5F9093640202C02FEF3FEFD6
:1004E000C90108958091630290E020916402821B0B
:1004F00091090895CF92DF92EF92FF920F931F938D
:10050000CF93DF937C01262F972F8A018091880259
:10051000882391F0C62FD72F6E01C40ED51ECC159F
:10052000DD0571F06991D701ED91FC910190F081A9
:10053000E02DC7010995F3CF642F822F0E94080296
:10054000C801DF91CF911F910F91FF90EF90DF9045
:10055000CF900895CF93DF931F92CDB7DEB7698315
:10056000209188022223D1F020918502203240F090
:1005700021E030E0FC013383228380E090E015C06D
:1005800080918602E82FF0E0E653FE4F9981908338
:100590008F5F809386028093850205C061E0CE0163
:1005A00001960E94080281E090E00F90DF91CF91C8
:1005B0000895089580E090E00895CF93DF9300D0F0
:1005C000CDB7DEB790E899838A83CE0101960E9469
:1005D0007F070F900F90DF91CF910895CF93DF9316
:1005E00000D0CDB7DEB780E489836A83CE0101965F
:1005F0000E947F0781E090E00F900F90DF91CF91F4
:1006000008951F93CF93DF93182FEB010E949C074F
:10061000209711F460E004C0CF3FD10539F461E0C8
:10062000812FDF91CF911F910C948D01E12FF0E08C
:10063000E859FF4FE491E330F9F048F4E130B9F0C4
:10064000E230A1F584B5806284BDC8BD34C0E73016
:10065000E9F0E83019F1E43049F5809180008062DA
:1006600080938000D0938B00C0938A0024C084B50F
:10067000806884BDC7BD1FC0809180008068809362
:100680008000D0938900C093880015C08091B0008D
:1006900080688093B000C093B3000DC08091B0001B
:1006A00080628093B000C093B40005C0C038D1050B
:1006B0000CF0B5CFAFCFDF91CF911F9108950E947D
:1006C000C70A6115710579F0FB0101900020E9F777
:1006D0003197AF01461B570BDC01ED91FC91028075
:1006E000F381E02D099480E090E008954F925F92AD
:1006F0006F927F92EF92FF920F931F93CF93DF93AE
:10070000CDB7DEB7A1970FB6F894DEBF0FBECDBF51
:100710007C01FA01CB0119A2223008F42AE08E01F3
:100720000F5D1F4F422E512C612C712CBF01A30174
:1007300092010E949F0AF901CA01015011096A3011
:1007400014F4605D01C0695CD8016C93232B242BE9
:10075000252B61F7B801C7010E946103A1960FB66E
:10076000F894DEBF0FBECDBFDF91CF911F910F91E7
:10077000FF90EF907F906F905F904F9008951F9241
:100780000F920FB60F9211242F933F934F935F93C5
:100790006F937F938F939F93AF93BF93EF93FF9349
:1007A00089E892E00E94F900FF91EF91BF91AF912B
:1007B0009F918F917F916F915F914F913F912F9179
:1007C0000F900FBE0F901F9018951F920F920FB6AB
:1007D0000F9211242F938F939F93EF93FF93E091A8
:1007E0009902F0919A028081E0919F02F091A0021B
:1007F00082FD12C090818091A2028F5F8F73209141
:10080000A302821751F0E091A202F0E0E757FD4FFA
:10081000958F8093A20201C08081FF91EF919F91FB
:100820008F912F910F900FBE0F901F9018958F9260
:100830009F92AF92BF92CF92DF92EF92FF926B01A5
:100840007C010E94D9014B015C01C114D104E10477
:10085000F104F1F00E94D901DC01CB01881999095A
:10086000AA09BB09883E9340A105B10570F321E0B8
:10087000C21AD108E108F10888EE880E83E0981EBC
:10088000A11CB11CC114D104E104F10419F7DDCF9E
:10089000FF90EF90DF90CF90BF90AF909F908F90A0
:1008A00008951F920F920FB60F9211242F933F932A
:1008B0008F939F93AF93BF938091360290913702AD
:1008C000A0913802B09139023091310223E0230F18
:1008D0002D3720F40196A11DB11D05C026E8230F78
:1008E0000296A11DB11D2093310280933602909390
:1008F0003702A0933802B09339028091320290916E
:100900003302A0913402B09135020196A11DB11DB0
:100910008093320290933302A0933402B093350255
:10092000BF91AF919F918F913F912F910F900FBEEB
:100930000F901F9018951F920F920FB60F921124CF
:100940002F933F934F935F936F937F938F939F93D7
:10095000AF93BF93EF93FF938091B900887F803668
:1009600009F49CC068F5883209F45BC090F48031CA
:1009700009F454C038F4882309F4F6C0883009F427
:100980004DC0F6C0883109F44CC0803209F45DC016
:10099000EFC0803409F468C048F4803309F455C0CE
:1009A000883309F0E5C080936002D8C0803509F42F
:1009B0004FC0883509F45DC0883409F0D9C0D6C06D
:1009C000883909F4C7C0A8F4883709F467C038F437
:1009D000883609F463C0803709F460C0C9C088381C
:1009E00009F4B8C0803909F45FC0803809F0C0C08C
:1009F0005BC0803B09F486C038F4803A09F466C0D5
:100A0000883A09F47FC0B4C0803C09F4A7C0883C90
:100A100009F4A4C0883B09F48AC0AAC080915D0291
:100A200010C090915F0280915E02981770F5E0917E
:100A30005F0281E08E0F80935F02F0E0E45CFD4F87
:100A400080818093BB0085EC86C0809360028EC05D
:100A5000E0915F0281E08E0F80935F028091BB0086
:100A6000F0E0E45CFD4F808390915F0280915E0234
:100A70006EC0E0915F0281E08E0F80935F028091F3
:100A8000BB00F0E0E45CFD4F808380916102811146
:100A90006DC081E080935C0284EA61C083E0809352
:100AA000620210923002CFCF80913002803208F083
:100AB00051C0E091300281E08E0F8093300280912E
:100AC000BB00F0E0E05FFD4F8083BDCF85EC8093FD
:100AD000BC001092620280913002803230F4E091CA
:100AE0003002F0E0E05FFD4F10826091300270E074
:100AF000E0910E02F0910F0280E192E009951092D0
:100B0000300236C084E08093620210920D0210928F
:100B10000C02E0910A02F0910B02099580910C02FF
:100B2000811105C081E080930C021092EA01E091EE
:100B30000D0281E08E0F80930D02F0E0E651FE4F32
:100B400080818093BB0090910D0280910C029817D8
:100B500008F479CF85E88093BC000AC085EC8093C7
:100B6000BC001092620204C0109260020E94FE015A
:100B7000FF91EF91BF91AF919F918F917F916F9175
:100B80005F914F913F912F910F900FBE0F901F904B
:100B900018952091850290918702213208F04AC071
:100BA000809162028111FCCF32E03093620231E029
:100BB000309361023FEF3093600210925F02209306
:100BC0005E02AAECB1E04CE352E0FA013E2F341B86
:100BD000321718F43D913193F9CF10925D022091B4
:100BE0005D02990F922B90935D0290915C0291307F
:100BF00061F410925C0290915D029093BB00909121
:100C0000BC0093FDF8CF95EC01C095EE9093BC002D
:100C1000909162029230E1F3909160029F3F79F0EF
:100C200080916002803241F080916002803331F027
:100C300084E005C081E003C082E001C083E010923F
:100C40008602109285021092880208951F93CF9316
:100C5000DF93182F81E08093880289E480938702D4
:100C60001092860210928502CCE3D3E088819981AC
:100C7000DC01ED91FC910190F081E02D61E009959E
:100C800088819981DC01ED91FC910190F081E02D4A
:100C9000612F099588819981DF91CF911F910C94E3
:100CA000C905E9E8F2E0A089B18982E08C93A485C6
:100CB000B5851C92A685B78580E18C93108EA4899A
:100CC000B58986E08C93A289B3898C9180618C93DD
:100CD000A289B3898C9188608C93A289B3898C9105
:100CE00080688C930288F389E02D80818F7D8083DA
:100CF0000895CF93DF93BC0189E892E00E946103DD
:100D0000EC0160E671E089E892E00E9461038C0FDB
:100D10009D1FDF91CF91089591E09093880299E40F
:100D2000909387021092860210928502A0913C0354
:100D3000B0913D03ED91FC9111970190F081E02D70
:100D4000682FCD01099580913C0390913D030E944D
:100D5000C905809162028111FCCF81E0809362021B
:100D6000809361029FEF9093600210925F02109255
:100D70005E0280935D0280915D02826980935D02D4
:100D800080915C02813061F410925C0280915D027E
:100D90008093BB008091BC0083FDF8CF85EC01C03F
:100DA00085EE8093BC00809162028130E1F38091F6
:100DB0005F02811103C080915F0201C081E0ACE35A
:100DC000B2E025E632E0F9019E2F921B981718F445
:100DD0009D919193F9CF1092640280936302809168
:100DE0003C0390913D03DC01ED91FC910084F18581
:100DF000E02D0995892B61F080913C0390913D0392
:100E0000DC01ED91FC910284F385E02D09950895B4
:100E100080EC91E00E9479068FEF0895CF93DF93E5
:100E2000D82FC62F80E00E948C0681FF07C065E0A6
:100E300070E080E090E00E941704F4CF8D2F80686E
:100E40000E94260680E00E948C0681FF07C065E0B4
:100E500070E080E090E00E941704F4CF8C2FDF91C7
:100E6000CF910C942606CF93C82F80E00E948C0669
:100E700080FF03C082E00E948C0680E00E948C0606
:100E800081FF07C065E070E080E090E00E941704F9
:100E9000F4CF8C2F0E94260680E00E948C0680FDF5
:100EA00007C065E070E080E090E00E941704F4CF96
:100EB00082E0CF910C948C0684E00E943307682F67
:100EC0006C6084E00C940E07CF93C62F91E0909352
:100ED000880292E690938702109286021092850211
:100EE000682F86E293E00E94AA026C2F86E293E0CC
:100EF0000E94AA0286E293E0CF910C94C905CF9399
:100F0000DF93EC0181E0809388028EE38093870277
:100F10001092860210928502688186E293E00E9418
:100F2000AA02698186E293E00E94AA0286E293E027
:100F3000DF91CF910C94C90590E0FC01EC55FF4F77
:100F40002491FC01E057FF4F8491882399F090E0B1
:100F5000880F991FFC01EA57FF4FA591B491FC013E
:100F6000E458FF4F859194918FB7F894EC91E22B60
:100F7000EC938FBF0895CF92DF92EF92FF92CF93C1
:100F8000DF936C01990FEE08FF08F7FE21C0E09196
:100F90008902F0918A020190F081E02D6DE289E8EA
:100FA00092E00995EC0144275527BA014C195D09D7
:100FB0006E097F092AE089E892E00E9476038C0F8F
:100FC0009D1FDF91CF91FF90EF90DF90CF9008951C
:100FD0002AE0B701A60189E892E0DF91CF91FF9066
:100FE000EF90DF90CF900C9476030F931F93CF93E5
:100FF000DF93C82F0E943307182F81E08C0F0E94C7
:101000003307082F82E08C0F0E943307D82F83E02C
:101010008C0F0E943307402F50E060E070E0BA016F
:1010200055274427712B482BCB01BA017D2BDF912B
:10103000CF911F910F910895CF93DF9300D0CDB73B
:10104000DEB7789484B5826084BD84B5816084BD48
:1010500085B5826085BD85B5816085BD80916E0056
:10106000816080936E001092810080918100826087
:1010700080938100809181008160809381008091C4
:1010800080008160809380008091B10084608093B3
:10109000B1008091B00081608093B00080917A00AF
:1010A000846080937A0080917A00826080937A00D5
:1010B00080917A00816080937A0080917A008068C4
:1010C00080937A001092C10088E00E949C0789E01A
:1010D0000E949C0710926402109263021092860292
:1010E000109285020E94300280913603982F9860FA
:1010F0009093360312E010933A0310923B03EBE314
:10110000FDE03197F1F788620E94DD028BE496E4FE
:101110000197F1F78091360380620E94DD0283E53A
:1011200092E00197F1F78091360380620E94DD0220
:101130008091360380620E94DD0284E08093370351
:101140008CE00E94DD0281E00E94DD028BE39FE1E2
:101150000197F1F71093380386E00E94DD0260E00A
:1011600080E00E9464076FEF88E00E94640760E2FD
:1011700081E00E9464076FEF84E00E9464076FEFD4
:1011800083E00E9464076FEF82E00E9464076FE7CC
:1011900084E00E9464076FE783E00E9464076FE7C2
:1011A00082E00E94640762E371E082E393E00E94C0
:1011B000610368EE73E080E090E00E9417040E94F3
:1011C000510686E293E090933D0380933C03109296
:1011D00064021092630210928602109285020E94AD
:1011E00030020E94510681E00E94330780933E0343
:1011F0008E538230B0F060E471E089E892E00E94A2
:10120000610340913E0350E060E070E020E189E836
:1012100092E00E94760360E671E089E892E00E9425
:10122000610387E00E943307682F6F7C87E00E948C
:101230000E0787E00E943307682F677F87E00E94D0
:101240000E0787E00E943307682F666087E00E94E0
:101250000E0787E00E943307682F6E7F87E00E94A9
:101260000E0762E385E00E940E0784E00E943307C8
:10127000682F606384E00E940E070E945C078091E3
:101280003E03811105C083E691E00E947906FFCFFD
:101290008E3321F48BE891E00E94790680913E0321
:1012A0008F3321F48AE991E00E94790680E4382E98
:1012B00090E8292E28EE822E23E0922EA12CB12C2C
:1012C00000913A0210913B02B80188E00E940103AC
:1012D000B80189E00E940103809100019091010111
:1012E000080F191F10933B0200933A020150110995
:1012F0000E3F110538F09195819591099093010168
:101300008093000130927C0080917A008064809309
:101310007A0080917A0086FDFCCF809178008091E0
:101320007900298280EC8A83CE0101960E947F0792
:101330002FB7F8946091360270913702809138028D
:10134000909139022FBFA50194010E949F0ABA0112
:10135000A9012AE082E393E00E94760384E00E94E0
:101360003307682F6D7F84E00E940E070E945C07A0
:1013700084E00E94330781FD07C065E070E080E0F3
:1013800090E00E941704F4CF88E10E94F5076B01FA
:101390007C018CE10E94F5072B013C0169EA71E0B8
:1013A00089E892E00E946103C701B6010E94400AE9
:1013B000CB010E94BB0760EB71E089E892E00E94DC
:1013C000610362EB71E089E892E00E946103C3016E
:1013D000B2010E94400ACB010E94BB0761E671E0A6
:1013E00089E892E00E9461036EE170E080E090E0A5
:1013F0000E9417040E94830163CFE9E8F2E01382A0
:10140000128288EE93E0A0E0B0E084839583A68307
:10141000B78326E031E03183208325EC30E0358747
:10142000248724EC30E03787268720EC30E0318BAE
:10143000208B21EC30E0338B228B22EC30E0358B9B
:10144000248B26EC30E0378B268B118E128E138E78
:10145000148EE6E2F3E01382128284839583A683DE
:10146000B78388E191E09183808310923E03E2E3A9
:10147000F3E0138212828AE291E0918380830895DF
:101480000E94470A6894B1110C94990A08950E9429
:101490007E0A88F09F5798F0B92F9927B751B0F07E
:1014A000E1F0660F771F881F991F1AF0BA95C9F7E8
:1014B00014C0B13091F00E94980AB1E008950C94E4
:1014C000980A672F782F8827B85F39F0B93FCCF397
:1014D000869577956795B395D9F73EF49095809565
:1014E000709561957F4F8F4F9F4F089557FD90588E
:1014F000440F551F59F05F3F71F04795880F97FBD8
:10150000991F61F09F3F79F0879508951216130691
:101510001406551FF2CF4695F1DF08C016161706C0
:101520001806991FF1CF86957105610508940895F5
:10153000E894BB2766277727CB0197F90895A1E2A6
:101540001A2EAA1BBB1BFD010DC0AA1FBB1FEE1F3D
:10155000FF1FA217B307E407F50720F0A21BB30B88
:10156000E40BF50B661F771F881F991F1A9469F704
:1015700060957095809590959B01AC01BD01CF0160
:101580000895EE0FFF1F0590F491E02D099481E07E
:0C15900090E0F8940C94CC0AF894FFCF83
:10159C000500000000001A018700B2006101E300A1
:1015AC00C100D50000000000AA027A02DA024E0245
:1015BC0072025E024F0200000000EE028700DA02A7
:1015CC00D90268656C6C6F2C20776F726C6421008B
:1015DC004944202873686F756C64206265203078EC
:1015EC003345206F722030783346293A203078000A
:1015FC000D0A0053656E736F72206661696C6564C9
:10160C0020746F20726573706F6E642E2043686552
:10161C00636B20776972696E672E004153373236DF
:10162C0032206F6E6C696E65210041533732363350
:10163C00206F6E6C696E652100626C75653A2000D6
:10164C002C00477265656E2056616C75653A2000FA
:0A165C00493243204572726F72009C
:00000001FF
